{
  "_format": "hh-sol-artifact-1",
  "contractName": "EnergyTrading",
  "sourceName": "contracts/EnergyTrading.sol",
  "abi": [
    {
      "inputs": [
        {
          "internalType": "address",
          "name": "_energyTokenAddress",
          "type": "address"
        }
      ],
      "stateMutability": "nonpayable",
      "type": "constructor"
    },
    {
      "anonymous": false,
      "inputs": [
        {
          "indexed": false,
          "internalType": "uint256",
          "name": "tradeId",
          "type": "uint256"
        },
        {
          "indexed": false,
          "internalType": "address",
          "name": "buyer",
          "type": "address"
        }
      ],
      "name": "TradeCompleted",
      "type": "event"
    },
    {
      "anonymous": false,
      "inputs": [
        {
          "indexed": false,
          "internalType": "uint256",
          "name": "tradeId",
          "type": "uint256"
        },
        {
          "indexed": false,
          "internalType": "uint256",
          "name": "amount",
          "type": "uint256"
        },
        {
          "indexed": false,
          "internalType": "uint256",
          "name": "price",
          "type": "uint256"
        },
        {
          "indexed": false,
          "internalType": "address",
          "name": "seller",
          "type": "address"
        }
      ],
      "name": "TradeCreated",
      "type": "event"
    },
    {
      "inputs": [
        {
          "internalType": "uint256",
          "name": "_amount",
          "type": "uint256"
        },
        {
          "internalType": "uint256",
          "name": "_price",
          "type": "uint256"
        }
      ],
      "name": "createTrade",
      "outputs": [],
      "stateMutability": "nonpayable",
      "type": "function"
    },
    {
      "inputs": [],
      "name": "energyToken",
      "outputs": [
        {
          "internalType": "contract EnergyToken",
          "name": "",
          "type": "address"
        }
      ],
      "stateMutability": "view",
      "type": "function"
    },
    {
      "inputs": [
        {
          "internalType": "uint256",
          "name": "_tradeId",
          "type": "uint256"
        }
      ],
      "name": "executeTrade",
      "outputs": [],
      "stateMutability": "nonpayable",
      "type": "function"
    },
    {
      "inputs": [
        {
          "internalType": "uint256",
          "name": "_tradeId",
          "type": "uint256"
        }
      ],
      "name": "getTrade",
      "outputs": [
        {
          "internalType": "uint256",
          "name": "",
          "type": "uint256"
        },
        {
          "internalType": "uint256",
          "name": "",
          "type": "uint256"
        },
        {
          "internalType": "address",
          "name": "",
          "type": "address"
        },
        {
          "internalType": "bool",
          "name": "",
          "type": "bool"
        }
      ],
      "stateMutability": "view",
      "type": "function"
    },
    {
      "inputs": [],
      "name": "tradeCounter",
      "outputs": [
        {
          "internalType": "uint256",
          "name": "",
          "type": "uint256"
        }
      ],
      "stateMutability": "view",
      "type": "function"
    },
    {
      "inputs": [
        {
          "internalType": "uint256",
          "name": "",
          "type": "uint256"
        }
      ],
      "name": "trades",
      "outputs": [
        {
          "internalType": "uint256",
          "name": "amount",
          "type": "uint256"
        },
        {
          "internalType": "uint256",
          "name": "price",
          "type": "uint256"
        },
        {
          "internalType": "address",
          "name": "seller",
          "type": "address"
        },
        {
          "internalType": "bool",
          "name": "active",
          "type": "bool"
        }
      ],
      "stateMutability": "view",
      "type": "function"
    }
  ],
  "bytecode": "0x608060405234801561001057600080fd5b50604051610ebd380380610ebd833981810160405281019061003291906100db565b806000806101000a81548173ffffffffffffffffffffffffffffffffffffffff021916908373ffffffffffffffffffffffffffffffffffffffff16021790555050610108565b600080fd5b600073ffffffffffffffffffffffffffffffffffffffff82169050919050565b60006100a88261007d565b9050919050565b6100b88161009d565b81146100c357600080fd5b50565b6000815190506100d5816100af565b92915050565b6000602082840312156100f1576100f0610078565b5b60006100ff848285016100c6565b91505092915050565b610da6806101176000396000f3fe608060405234801561001057600080fd5b50600436106100625760003560e01c806302d2838b146100675780631e6c598e146100835780632db25e05146100b65780634ec7fb81146100e9578063660d15b51461010757806396463fc614610125575b600080fd5b610081600480360381019061007c91906107d3565b610141565b005b61009d600480360381019061009891906107d3565b61045e565b6040516100ad949392919061086b565b60405180910390f35b6100d060048036038101906100cb91906107d3565b6104cb565b6040516100e0949392919061086b565b60405180910390f35b6100f16105ab565b6040516100fe919061090f565b60405180910390f35b61010f6105cf565b60405161011c919061092a565b60405180910390f35b61013f600480360381019061013a9190610945565b6105d5565b005b60006001828154811061015757610156610985565b5b906000526020600020906003020190508060020160149054906101000a900460ff166101b8576040517f08c379a00000000000000000000000000000000000000000000000000000000081526004016101af90610a11565b60405180910390fd5b806001015460008054906101000a900473ffffffffffffffffffffffffffffffffffffffff1673ffffffffffffffffffffffffffffffffffffffff166370a08231336040518263ffffffff1660e01b81526004016102169190610a31565b602060405180830381865afa158015610233573d6000803e3d6000fd5b505050506040513d601f19601f820116820180604052508101906102579190610a61565b1015610298576040517f08c379a000000000000000000000000000000000000000000000000000000000815260040161028f90610ada565b60405180910390fd5b60008054906101000a900473ffffffffffffffffffffffffffffffffffffffff1673ffffffffffffffffffffffffffffffffffffffff166323b872dd338360020160009054906101000a900473ffffffffffffffffffffffffffffffffffffffff1684600101546040518463ffffffff1660e01b815260040161031d93929190610afa565b6020604051808303816000875af115801561033c573d6000803e3d6000fd5b505050506040513d601f19601f820116820180604052508101906103609190610b5d565b5060008054906101000a900473ffffffffffffffffffffffffffffffffffffffff1673ffffffffffffffffffffffffffffffffffffffff1663a9059cbb3383600001546040518363ffffffff1660e01b81526004016103c0929190610b8a565b6020604051808303816000875af11580156103df573d6000803e3d6000fd5b505050506040513d601f19601f820116820180604052508101906104039190610b5d565b5060008160020160146101000a81548160ff0219169083151502179055507f426b87d30760ed04a097c0113c943b597a538ae1483a0386bca1ea9380947aa18233604051610452929190610bb3565b60405180910390a15050565b6001818154811061046e57600080fd5b90600052602060002090600302016000915090508060000154908060010154908060020160009054906101000a900473ffffffffffffffffffffffffffffffffffffffff16908060020160149054906101000a900460ff16905084565b6000806000806000600186815481106104e7576104e6610985565b5b906000526020600020906003020160405180608001604052908160008201548152602001600182015481526020016002820160009054906101000a900473ffffffffffffffffffffffffffffffffffffffff1673ffffffffffffffffffffffffffffffffffffffff1673ffffffffffffffffffffffffffffffffffffffff1681526020016002820160149054906101000a900460ff161515151581525050905080600001518160200151826040015183606001519450945094509450509193509193565b60008054906101000a900473ffffffffffffffffffffffffffffffffffffffff1681565b60025481565b60008211610618576040517f08c379a000000000000000000000000000000000000000000000000000000000815260040161060f90610c28565b60405180910390fd5b6000811161065b576040517f08c379a000000000000000000000000000000000000000000000000000000000815260040161065290610c94565b60405180910390fd5b600160405180608001604052808481526020018381526020013373ffffffffffffffffffffffffffffffffffffffff168152602001600115158152509080600181540180825580915050600190039060005260206000209060030201600090919091909150600082015181600001556020820151816001015560408201518160020160006101000a81548173ffffffffffffffffffffffffffffffffffffffff021916908373ffffffffffffffffffffffffffffffffffffffff16021790555060608201518160020160146101000a81548160ff02191690831515021790555050507fe1acc34003648a99c0106bfc7e1022072bec880512031726c28382c21fceda9d6002548383336040516107749493929190610cb4565b60405180910390a16002600081548092919061078f90610d28565b91905055505050565b600080fd5b6000819050919050565b6107b08161079d565b81146107bb57600080fd5b50565b6000813590506107cd816107a7565b92915050565b6000602082840312156107e9576107e8610798565b5b60006107f7848285016107be565b91505092915050565b6108098161079d565b82525050565b600073ffffffffffffffffffffffffffffffffffffffff82169050919050565b600061083a8261080f565b9050919050565b61084a8161082f565b82525050565b60008115159050919050565b61086581610850565b82525050565b60006080820190506108806000830187610800565b61088d6020830186610800565b61089a6040830185610841565b6108a7606083018461085c565b95945050505050565b6000819050919050565b60006108d56108d06108cb8461080f565b6108b0565b61080f565b9050919050565b60006108e7826108ba565b9050919050565b60006108f9826108dc565b9050919050565b610909816108ee565b82525050565b60006020820190506109246000830184610900565b92915050565b600060208201905061093f6000830184610800565b92915050565b6000806040838503121561095c5761095b610798565b5b600061096a858286016107be565b925050602061097b858286016107be565b9150509250929050565b7f4e487b7100000000000000000000000000000000000000000000000000000000600052603260045260246000fd5b600082825260208201905092915050565b7f5472616465206973206e6f742061637469766500000000000000000000000000600082015250565b60006109fb6013836109b4565b9150610a06826109c5565b602082019050919050565b60006020820190508181036000830152610a2a816109ee565b9050919050565b6000602082019050610a466000830184610841565b92915050565b600081519050610a5b816107a7565b92915050565b600060208284031215610a7757610a76610798565b5b6000610a8584828501610a4c565b91505092915050565b7f496e73756666696369656e742062616c616e6365000000000000000000000000600082015250565b6000610ac46014836109b4565b9150610acf82610a8e565b602082019050919050565b60006020820190508181036000830152610af381610ab7565b9050919050565b6000606082019050610b0f6000830186610841565b610b1c6020830185610841565b610b296040830184610800565b949350505050565b610b3a81610850565b8114610b4557600080fd5b50565b600081519050610b5781610b31565b92915050565b600060208284031215610b7357610b72610798565b5b6000610b8184828501610b48565b91505092915050565b6000604082019050610b9f6000830185610841565b610bac6020830184610800565b9392505050565b6000604082019050610bc86000830185610800565b610bd56020830184610841565b9392505050565b7f416d6f756e74206d7573742062652067726561746572207468616e2030000000600082015250565b6000610c12601d836109b4565b9150610c1d82610bdc565b602082019050919050565b60006020820190508181036000830152610c4181610c05565b9050919050565b7f5072696365206d7573742062652067726561746572207468616e203000000000600082015250565b6000610c7e601c836109b4565b9150610c8982610c48565b602082019050919050565b60006020820190508181036000830152610cad81610c71565b9050919050565b6000608082019050610cc96000830187610800565b610cd66020830186610800565b610ce36040830185610800565b610cf06060830184610841565b95945050505050565b7f4e487b7100000000000000000000000000000000000000000000000000000000600052601160045260246000fd5b6000610d338261079d565b91507fffffffffffffffffffffffffffffffffffffffffffffffffffffffffffffffff8203610d6557610d64610cf9565b5b60018201905091905056fea26469706673582212203c7a4b391d6236b49b2db533b9d8a33e757619bb920f68d9d3f15cd45bb7a51d64736f6c63430008140033",
  "linkReferences": {},
  "deployedLinkReferences": {}
}